:10015000E4FD7F0112008F1200FE8F12E51260F79E
:10016000E4F513F514B2A57F011201860514E51418
:1001700070020513C394F4E513940140E8AD127FB7
:060180000112008F80D186
:06018600AE071FEE600E43
:0C018C007516027517EFD517FDD516FA91
:0301980080EC22D6
:1000FE00E4F51520B1107F1412018630B1FD7F1486
:10010E0012018675150120B0107F1412018630B0D1
:10011E00FD7F1412018675150220B2107F14120194
:10012E008630B2FD7F1412018675150320B3107F41
:10013E001412018630B3FD7F14120186751504AFBB
:01014E00159B
:01014F00228D
:0C019B000A083F065B4F666D7D077F6F12
:10008F00EF14B4080050609000A475F003A4C5836A
:10009F0025F0C583730200BC0200C00200C8020035
:1000AF00D00200D80200E00200E80200F0C2A480F3
:1000BF001AC2A4C2A3D2A2802ED2A4D2A2C2A3805B
:1000CF0026D2A3D2A2C2A4801ED2A4C2A3C2A2804F
:1000DF0016D2A2D2A4C2A3800ED2A3D2A4C2A2804F
:0F00EF0006D2A4D2A3D2A274082DF8E6F580227F
:03000000020003F8
:0C000300787FE4F6D8FD75811702004AF2
:10000F00020150E493A3F8E493A34003F68001F2B6
:10001F0008DFF48029E493A3F85407240CC8C333F2
:10002F00C4540F4420C8834004F456800146F6DFC1
:10003F00E4800B010204081020408090019BE47EB5
:10004F00019360BCA3FF543F30E509541FFEE493B6
:10005F00A360010ECF54C025E060A840B8E493A37D
:10006F00FAE493A3F8E493A3C8C582C8CAC583CAA8
:10007F00F0A3C8C582C8CAC583CADFE9DEE780BE60
:0101A7000057
:00000001FF
