:10021A001202CE1203117D037C007F801200977FA9
:10022A00811200EE8F1AEFFB7A00750C037D017FB5
:0B023A00021202867F141202B980E459
:0602E200C2A58F80D2A727
:0802E8007F027EEFDEFEDFFC69
:0102F00022EB
:0A02FD00C2A61202E2C2A70202E844
:10026800CFCDCFCECCCE1200427C007D0A12004208
:04027800ED2430FF42
:0A027C00D2A61202E2C2A70202E8B5
:1002A300AE07BE0104ED148006BE0209ED243F44EF
:0602B30080FF1202FD2293
:1002CE007F381202FD7F0C1202FD7F061202FD7FA7
:0402DE00010202FD1A
:0A030700AC031202A3AF0402027C53
:060245008B288A29892A9A
:10024B001202A3E4FDAB28AA29A92A8D827583008B
:0C025B00120003FF600612027C0D80E917
:010267002274
:0C01E7007F0AEA24FFFDE434FFFC7E00E8
:0801F3008E0D8F0E8C0F8D1094
:1001FB007F017E00E4FBEBC39510E50F6480F87480
:0E020B008098500AAC0DAD0E1200300B80E84A
:0102190022C2
:040286008A0A8B0B4A
:10028A001202A3AA0CEAD39400400D1201E7AC0AA9
:08029A00AD0B1202681A80EDA1
:0102A2002239
:10013C001202A3C3EA64809480400B7F2B12027CD2
:10014C008A168B17800E7F2D12027CC3E49BF51749
:10015C00E49AF516AA15EAD39400400D1201E7AC07
:09016C0016AD171202681A80EDAD
:010175002267
:040176008A208B212F
:10017A001202A3AA22EAD3940040297F101201E9AD
:10018A00AC20AD21CFCDCFCECCCE120042EF540F52
:10019A00FEC3940AEE5004243080022437FF120270
:0401AA007C1A80D16A
:0101AE00222E
:0401AF008A258B26EC
:1001B3001202A3AA27EAD394004028EA24FFFDE40D
:1001C30034FFFC7F027E001201F3AC25AD26CFCDB8
:1001D300CFCECCCE120042EF54012430FF12027C6A
:0301E3001A80D2AD
:0101E60022F6
:060097008C088D09AB0787
:10009D00D2B5E4FD74017E00A805088005C333CEFA
:1000AD0033CED8F9FFEBF582EF558224FF92B4D20F
:1000BD00B2C2B20DBD08DDE4FD74017E00A80508D5
:1000CD008005C333CE33CED8F9FFE5085EFEE509D2
:1000DD005F4E24FF92B4D2B2C2B20DBD08DBC2B5E1
:0100ED0022F0
:05031100C2B5C2B222DA
:0200EE00AD075C
:1000F000E4F9430501D2B5FB74017E00A803088032
:1001000005C333CE33CED8F9FFEDF582EF55822407
:10011000FF92B4C2B2D2B20BBB08DDE4FBD2B2C2D2
:10012000B230B40D7401A803088002C333D8FC4276
:0B013000010BBB08E8C2B5C2B4AF0170
:01013B0022A1
:0602B900AE071FEE600E0F
:0C02BF007508027509EFD509FDD508FA95
:0302CB0080EC22A2
:030000000202F108
:0C02F100787FE4F6D8FD75812A02021A1D
:10000300BB010CE58229F582E5833AF583E02250B2
:1000130006E92582F8E622BBFE06E92582F8E222FC
:0D002300E58229F582E5833AF583E4932216
:10003000EF8DF0A4A8F0CF8CF0A428CE8DF0A42EE4
:02004000FE229E
:10004200BC000BBE0029EF8DF084FFADF022E4CCA2
:10005200F875F008EF2FFFEE33FEEC33FCEE9DEC6B
:10006200984005FCEE9DFE0FD5F0E9E4CEFD22EDB1
:10007200F8F5F0EE8420D21CFEADF075F008EF2FFB
:10008200FFED33FD4007985006D5F0F222C398FDEC
:050092000FD5F0EA2289
:00000001FF
