:06000300636C6F636B00EB
:1000A20012031C1202DA7BFF7A0079037D017F01C1
:1000B20012027C1201128F27E5276013B401020598
:1000C20026E527B402020524E527B403020525E547
:1000D20026FB7A00750E027D017F021202BD7B3A79
:1000E2007D037F02120355E524FB7A00750E027D23
:1000F200047F021202BD7B3A7D067F02120355E5A0
:1001020025FB7A00750E027D077F021202BD80A3D5
:03000B000201648B
:04016400C0E0C0D067
:10016800758A18758CFC0509E50970020508C394A1
:10017800E8E5089403401A7508007509000525E5A7
:1001880025B43C0D7525000524E5247004F52405E7
:010198002640
:05019900D0D0D0E032DF
:06033000C2A58F80D2A7D8
:080336007F027EEFDEFEDFFC1A
:01033E00229C
:0A034B00C2A6120330C2A702033657
:10029F00CFCDCFCECCCE12004D7C007D0A12004DBB
:0402AF00ED2430FF0B
:0A02B300D2A6120330C2A7020336E0
:1002F100AE07BE0104ED148006BE0209ED243F44A1
:0603010080FF12034B22F5
:10031C007F3812034B7F0C12034B7F0612034B7F6B
:04032C000102034B7C
:0A035500AC031202F1AF040202B380
:06027C008B0A8A0B890CBD
:100282001202F1E4FDAB0AAA0BA90C8D8275830060
:0C02920012000EFF60061202B30D80E99E
:01029E00223D
:0C0249007F0AEA24FFFDE434FFFC7E0085
:080255008E0F8F108C118D1229
:10025D007F017E00E4FBEBC39512E5116480F87419
:0E026D008098500AAC0FAD1012003B0B80E8D9
:01027B002260
:0402BD008A0C8B0D0F
:1002C1001202F1AA0EEAD39400400D120249AC0CBD
:0802D100AD0D12029F1A80ED31
:0102D9002202
:10019E001202F1C3EA64809480400B7F2B1202B3EB
:1001AE008A188B19800E7F2D1202B3C3E49BF519AA
:1001BE00E49AF518AA17EAD39400400D120249AC3E
:0901CE0018AD1912029F1A80ED10
:0101D7002205
:0401D8008A1C8B1DD5
:1001DC001202F1AA1EEAD3940040297F1012024B9E
:1001EC00AC1CAD1DCFCDCFCECCCE12004DEF540FED
:1001FC00FEC3940AEE5004243080022437FF12020E
:04020C00B31A80D1D0
:0102100022CB
:040211008A218B2291
:100215001202F1AA23EAD394004028EA24FFFDE460
:1002250034FFFC7F027E00120255AC21AD22CFCDFA
:10023500CFCECCCE12004DEF54012430FF1202B3C5
:030245001A80D24A
:010248002293
:1002DA005389F0438901758A18758CFCC28DD28CBA
:0702EA00D2A9D2AFC2B92274
:06030700AE071FEE600EC0
:0C030D00750B02750CEFD50CFDD50BFA3A
:0303190080EC2253
:10011200E4F50A20B1107F1412030730B1FD7F14F9
:10012200120307750A0120B0107F1412030730B0C2
:10013200FD7F14120307750A0220B2107F14120306
:100142000730B2FD7F14120307750A0320B3107F34
:100152001412030730B3FD7F14120307750A04AFAC
:010162000A92
:010163002279
:0300000002033FB9
:0C033F00787FE4F6D8FD7581270200A24B
:10000E00BB010CE58229F582E5833AF583E02250A7
:10001E0006E92582F8E622BBFE06E92582F8E222F1
:0D002E00E58229F582E5833AF583E493220B
:10003B00EF8DF0A4A8F0CF8CF0A428CE8DF0A42ED9
:02004B00FE2293
:10004D00BC000BBE0029EF8DF084FFADF022E4CC97
:10005D00F875F008EF2FFFEE33FEEC33FCEE9DEC60
:10006D00984005FCEE9DFE0FD5F0E9E4CEFD22EDA6
:10007D00F8F5F0EE8420D21CFEADF075F008EF2FF0
:10008D00FFED33FD4007985006D5F0F222C398FDE1
:05009D000FD5F0EA227E
:00000001FF
