:1004050050617373776F726400466C617365005455
:040415007275650097
:10014D001204197BFF7A0479057D017F0112037C6E
:10015D001200038F08E50860F7D3940A5041C3E5F8
:10016D000C9404E50B94005036AE09AF0A7C007D6B
:10017D000A1202378E098F0AE50875F00A84E5F038
:10018D00250AF50AE43509F509050CE50C7002059B
:10019D000B751104AB0AAA097D017F021203BDE59F
:1001AD0008640B7036E50A64D77004E50964117BA9
:1001BD00FF60067A04790E80047A0479147D0C7F31
:1001CD000112037CE4F509F50AF50BF50C75110424
:1001DD00AB0AAA097D017F021203BDE508640C601C
:1001ED000302015DF509F50AF50BF50C751104AB6C
:0D01FD000AAA097D017F021203BD02015D07
:0603F000AE071FEE600ED7
:0C03F600750E02750FEFD50FFDD50EFA45
:0304020080EC2269
:06042D00C2A58F80D2A7DA
:080433007F027EEFDEFEDFFC1C
:01043B00229E
:0A044800C2A612042DC2A70204335D
:10039F00CFCDCFCECCCE1202497C007D0A120249BE
:0403AF00ED2430FF0A
:0A03B300D2A612042DC2A7020433E3
:1003DA00AE07BE0104ED148006BE0209ED243F44B7
:0603EA0080FF120448220E
:100419007F381204487F0C1204487F061204487F73
:040429000102044880
:0A045200AC031203DAAF040203B397
:06037C008B0D8A0E890FB3
:100382001203DAE4FDAB0DAA0EA90F8D827583006C
:0C03920012020AFF60061203B30D80E99E
:01039E00223C
:0C0349007F0AEA24FFFDE434FFFC7E0084
:080355008E128F138C148D151C
:10035D007F017E00E4FBEBC39515E5146480F87412
:0E036D008098500AAC12AD131202370B80E8D4
:01037B00225F
:0403BD008A0F8B1008
:1003C1001203DAAA11EAD39400400D120349AC0FCB
:0803D100AD1012039F1A80ED2C
:0103D9002201
:10029E001203DAC3EA64809480400B7F2B1203B3FF
:1002AE008A1B8B1C800E7F2D1203B3C3E49BF51C9F
:1002BE00E49AF51BAA1AEAD39400400D120349AC36
:0902CE001BAD1C12039F1A80ED08
:0102D7002204
:0402D8008A1F8B20CE
:1002DC001203DAAA21EAD3940040297F1012034BAF
:1002EC00AC1FAD20CFCDCFCECCCE120249EF540FE8
:1002FC00FEC3940AEE5004243080022437FF12030C
:04030C00B31A80D1CF
:0103100022CA
:040311008A248B258A
:100315001203DAAA26EAD394004028EA24FFFDE472
:1003250034FFFC7F027E00120355AC24AD25CFCDF2
:10033500CFCECCCE120249EF54012430FF1203B3C5
:030345001A80D249
:010348002292
:10000300E4F50D7590FFC2932097107F141203F04F
:100013003097FD7F141203F0750D012096107F14A5
:100023001203F03096FD7F141203F0750D05209531
:10003300107F141203F03095FD7F141203F0750D39
:10004300092094107F141203F03094FD7F141203DF
:10005300F0750D0D7590FFC2922097107F14120357
:10006300F03097FD7F141203F0750D022096107F78
:10007300141203F03096FD7F141203F0750D062061
:1000830095107F141203F03095FD7F141203F07561
:100093000D0A2094107F141203F03094FD7F141284
:1000A30003F0750D0E7590FFC2912097107F141207
:1000B30003F03097FD7F141203F0750D03209610A3
:1000C3007F141203F03096FD7F141203F0750D07B1
:1000D3002095107F141203F03095FD7F141203F066
:1000E300750D0B2094107F141203F03094FD7F14D0
:1000F3001203F0750D0F7590FFC2902097107F14B7
:100103001203F03097FD7F141203F0750D0420964F
:10011300107F141203F03096FD7F141203F0750D57
:10012300082095107F141203F03095FD7F141203FD
:10013300F0750D0C2094107F141203F03094FD7FA2
:09014300141203F0750D10AF0D4C
:01014C002290
:0300000002043CBB
:0C043C00787FE4F6D8FD75812602014DA2
:10020A00BB010CE58229F582E5833AF583E02250A9
:10021A0006E92582F8E622BBFE06E92582F8E222F3
:0D022A00E58229F582E5833AF583E493220D
:10023700EF8DF0A4A8F0CF8CF0A428CE8DF0A42EDB
:02024700FE2295
:10024900BC000BBE0029EF8DF084FFADF022E4CC99
:10025900F875F008EF2FFFEE33FEEC33FCEE9DEC62
:10026900984005FCEE9DFE0FD5F0E9E4CEFD22EDA8
:10027900F8F5F0EE8420D21CFEADF075F008EF2FF2
:10028900FFED33FD4007985006D5F0F222C398FDE3
:050299000FD5F0EA2280
:00000001FF
