:02000300AD0747
:10000500E4FB74807E00A803088006CEA2E713CE29
:1000150013D8F8FFEDF582EF558224FF92B4D2B6DE
:0A002500C2B60BBB08DCD2B5C2B5B1
:01002F0022AE
:10003000AA07AF05120003AF02747F7EFFA807086E
:100040008006CEA2E713CE13D8F8F5807F01120008
:050050006D7580FF2228
:10005500C2B6C2B57D3C7C00E4FF1200307D427C17
:08006500007F0112003080EC65
:06006D00AE071FEE600E5D
:0C0073007508027509EFD509FDD508FAE3
:03007F0080EC22F0
:0300000002008279
:0C008200787FE4F6D8FD75810902005576
:00000001FF
