:100111001201E412016A8F15E515601CB401020594
:1001210013E515B402021513E515B40303E4F51341
:10013100E515B40403751303E5137002F514E51313
:10014100B40103751432E513B4020375144BE513BE
:10015100B40303751464E513C394044003E4F51375
:09016100AD137F0112009A80AA7F
:03000B000201BC33
:1001BC00C0E0C0D0758A9C758CFF0512E512C39403
:1001CC00644003751200E512C395145004D290805C
:0801DC0002C290D0D0D0E03245
:0601FB00AE071FEE600ECE
:0C0201007517027518EFD518FDD517FA17
:03020D0080EC2260
:10016A00E4F51620B1107F141201FB30B1FD7F14A3
:10017A001201FB75160120B0107F141201FB30B07A
:10018A00FD7F141201FB75160220B2107F141201B2
:10019A00FB30B2FD7F141201FB75160320B3107FEA
:1001AA00141201FB30B3FD7F141201FB751604AF64
:0101BA00162E
:0101BB002221
:0C0210000A083F065B4F666D7D077F6F9C
:10009A00EF14B4080050609000AF75F003A4C58354
:1000AA0025F0C583730200C70200CB0200D3020009
:1000BA00DB0200E30200EB0200F30200FBC2A480B1
:1000CA001AC2A4C2A3D2A2802ED2A4D2A2C2A38050
:1000DA0026D2A3D2A2C2A4801ED2A4C2A3C2A28044
:1000EA0016D2A2D2A4C2A3800ED2A3D2A4C2A28044
:1000FA0006D2A4D2A3D2A274082DF8E6F5807F0115
:07010A001201FBE4F5802265
:1001E4005389F0438901758A9C758CFFC28DD28C2A
:0701F400D2A9D2AFC2B9226B
:0300000002000EED
:0C000E00787FE4F6D8FD758118020055DB
:10001A00020111E493A3F8E493A34003F68001F2EA
:10002A0008DFF48029E493A3F85407240CC8C333E7
:10003A00C4540F4420C8834004F456800146F6DFB6
:10004A00E4800B0102040810204080900210E47E34
:10005A00019360BCA3FF543F30E509541FFEE493AB
:10006A00A360010ECF54C025E060A840B8E493A372
:10007A00FAE493A3F8E493A3C8C582C8CAC583CA9D
:10008A00F0A3C8C582C8CAC583CADFE9DEE780BE55
:01021C0000E1
:00000001FF
