:0C0139000A083F065B4F666D7D077F6F74
:06012400AE071FEE600EA5
:0C012A0075120C7513A9D513FDD512FA3F
:0301360080EC2238
:10008F00EF14B4080050609000A475F003A4C5836A
:10009F0025F0C583730200BC0200C00200C8020035
:1000AF00D00200D80200E00200E80200F0C2A480F3
:1000BF001AC2A4C2A3D2A2802ED2A4D2A2C2A3805B
:1000CF0026D2A3D2A2C2A4801ED2A4C2A3C2A2804F
:1000DF0016D2A2D2A4C2A3800ED2A3D2A4C2A2804F
:1000EF0006D2A4D2A3D2A274082DF8E6F5807F0120
:0700FF00120124E4F5802248
:100106007D017F0812008F7D037F0712008F7D011E
:0E0116007F0612008F7D047F0512008F80E2AD
:03000000020003F8
:0C000300787FE4F6D8FD75811302004AF6
:10000F00020106E493A3F8E493A34003F68001F200
:10001F0008DFF48029E493A3F85407240CC8C333F2
:10002F00C4540F4420C8834004F456800146F6DFC1
:10003F00E4800B0102040810204080900139E47E17
:10004F00019360BCA3FF543F30E509541FFEE493B6
:10005F00A360010ECF54C025E060A840B8E493A37D
:10006F00FAE493A3F8E493A3C8C582C8CAC583CAA8
:10007F00F0A3C8C582C8CAC583CADFE9DEE780BE60
:0101450000B9
:00000001FF
