:1000B4001200D475A0FE1200628F0BE50B60F7B43A
:1000C40001F4050AE50AC3940240EBE4F50A80E66C
:03000B0002000EE2
:0B000E00C0E0C0D075D000C000C007EB
:10001900758A18758CFC0509E50970020508C394F1
:10002900F4E50894014029750800750900E50AB44A
:10003900010DAFA07801EF08800123D8FDF5A0E5F7
:100049000A700DAFA07801EF08800103D8FDF5A073
:09005900D007D000D0D0D0E03275
:1000D4005389F0438901758A18758CFCC28DD28CC2
:0700E400D2A9D2AFC2B9227C
:10006200E4F50C20B1107F141200EB30B1FD7F14C7
:100072001200EB750C0120B0107F141200EB30B0AF
:10008200FD7F141200EB750C0220B2107F141200D7
:10009200EB30B2FD7F141200EB750C0320B3107F1E
:1000A200141200EB30B3FD7F141200EB750C04AF99
:0100B2000C41
:0100B300222A
:0600EB00AE071FEE600EDF
:0C00F100750D02750EEFD50EFDD50DFA51
:0300FD0080EC2272
:03000000020100FA
:0C010000787FE4F6D8FD75810E0200B493
:00000001FF
