:0602550048656C6C6F00AF
:100175001202127B417D017F0112024B7BFF7A0245
:1001850079557D037F0112019E750C037B7B7A00F7
:090195007D097F011201DF80DA0F
:06022600C2A58F80D2A7E3
:08022C007F027EEFDEFEDFFC25
:0102340022A7
:0A024100C2A6120226C2A702022C78
:1001C100CFCDCFCECCCE1200427C007D0A120042B0
:0401D100ED2430FFEA
:0A01D500D2A6120226C2A702022CD5
:1001FC00AE07BE0104ED148006BE0209ED243F4497
:06020C0080FF12024122F6
:100212007F381202417F0C1202417F061202417F97
:040222000102024192
:0A024B00AC031201FCAF040201D560
:06019E008B088A09890AA2
:1001A4001201FCE4FDAB08AA09A90A8D827583003B
:0C01B400120003FF60061201D50D80E967
:0101C000221C
:0C0142007F0AEA24FFFDE434FFFC7E008D
:08014E008E0D8F0E8C0F8D1039
:100156007F017E00E4FBEBC39510E50F6480F87425
:0E0166008098500AAC0DAD0E1200300B80E8F0
:010174002268
:0401DF008A0A8B0BF2
:1001E3001201FCAA0CEAD39400400D120142AC0A9E
:0801F300AD0B1201C11A80EDF1
:0101FB0022E1
:100097001201FCC3EA64809480400B7F2B1201D5C8
:1000A7008A168B17800E7F2D1201D5C3E49BF51797
:1000B700E49AF516AA15EAD39400400D120142AC52
:0900C70016AD171201C11A80EDFB
:0100D000220D
:0400D1008A1A8B1BE1
:1000D5001201FCAA1CEAD3940040297F10120144A6
:1000E500AC1AAD1BCFCDCFCECCCE120042EF540F04
:1000F500FEC3940AEE5004243080022437FF120117
:04010500D51A80D1B6
:0101090022D3
:04010A008A1F8B209D
:10010E001201FCAA21EAD394004028EA24FFFDE460
:10011E0034FFFC7F027E0012014EAC1FAD20CFCD0E
:10012E00CFCECCCE120042EF54012430FF1201D5B7
:03013E001A80D252
:01014100229B
:03000000020235C4
:0C023500787FE4F6D8FD75812102017588
:10000300BB010CE58229F582E5833AF583E02250B2
:1000130006E92582F8E622BBFE06E92582F8E222FC
:0D002300E58229F582E5833AF583E4932216
:10003000EF8DF0A4A8F0CF8CF0A428CE8DF0A42EE4
:02004000FE229E
:10004200BC000BBE0029EF8DF084FFADF022E4CCA2
:10005200F875F008EF2FFFEE33FEEC33FCEE9DEC6B
:10006200984005FCEE9DFE0FD5F0E9E4CEFD22EDB1
:10007200F8F5F0EE8420D21CFEADF075F008EF2FFB
:10008200FFED33FD4007985006D5F0F222C398FDEC
:050092000FD5F0EA2289
:00000001FF
