:04005F007F147E008C
:0A006300EF1FAC0670011E4C600E8A
:0C006D00750B02750CEFD50CFDD50BFADD
:0300790080E822FA
:09000300E4F50875090875A0FE7A
:10000C0020B12712005F30B1FD12005F050AE50A2E
:10001C00D394084003E4F50AAF0A7401A8070880DA
:10002C0002C333D8FCF4F5A080D620B0D312005F05
:10003C0030B0FD12005FE50A7005750A07800215E5
:10004C000AAF0A7401A807088002C333D8FCF4F580
:01005C00A003
:02005D0080AD74
:0300000002007C7F
:0C007C00787FE4F6D8FD75810C020003CB
:00000001FF
