:0C073B0054656D707261747572653A004F
:1004620012072E7FE81207531206F77BFF7A0779ED
:100472003B7D017F0112061A12072E1205EE8F250F
:100482008E248D238C22E4FFFEFDFCAB25AA24A939
:1004920023A8221201A9501E7B2D7D017F02120783
:1004A20067AF25AE24AD23AC221202228F258E2403
:1004B2008D238C2280097B2B7D017F02120767AF7F
:1004C20025AE24AD23AC22120271AB07AA06750C2D
:1004D200037D027F0212065B7B2E7D057F021207DF
:1004E200677F007E407D1C7C46AB25AA24A923A8F9
:1004F20022120003120271E47B107A27F9F8120328
:0E050200C2750C047D067F0212065B02047AAD
:0A075300AE071FEE60030080F722DE
:06071F00C2A58F80D2A7E5
:080725007F027EEFDEFEDFFC27
:01072D0022A9
:0A075D00C2A612071FC2A70207255B
:10063D00CFCDCFCECCCE1203317C007D0A1203314B
:04064D00ED2430FF69
:0A065100D2A612071FC2A702072558
:1006E100AE07BE0104ED148006BE0209ED243F44AD
:0606F10080FF12075D22EC
:1006F7007F3812075D7F0C12075D7F0612075D7F4B
:040707000102075D87
:0A076700AC031206E1AF04020651D4
:06061A008B088A09890A21
:100620001206E1E4FDAB08AA09A90A8D82758300D0
:0C0630001202F2FF60061206510D80E974
:01063C00229B
:0C05BB007F0AEA24FFFDE434FFFC7E0010
:0805C7008E0D8F0E8C0F8D10BC
:1005CF007F017E00E4FBEBC39510E50F6480F874A8
:0E05DF008098500AAC0DAD0E12031F0B80E881
:0105ED0022EB
:04065B008A0A8B0B71
:10065F001206E1AA0CEAD39400400D1205BBAC0AB6
:08066F00AD0B12063D1A80EDEF
:010677002260
:100510001206E1C3EA64809480400B7F2B120651DF
:100520008A168B17800E7F2D120651C3E49BF51798
:10053000E49AF516AA15EAD39400400D1205BBAC57
:0905400016AD1712063D1A80EDFC
:01054900228F
:04054A008A1A8B1B63
:10054E001206E1AA1CEAD3940040297F101205BDC1
:10055E00AC1AAD1BCFCDCFCECCCE120331EF540F94
:10056E00FEC3940AEE5004243080022437FF120694
:04057E00511A80D1BD
:010582002256
:040583008A1F8B2020
:100587001206E1AA21EAD394004028EA24FFFDE4F9
:1005970034FFFC7F027E001205C7AC1FAD20CFCD14
:1005A700CFCECCCE120331EF54012430FF120651C7
:0305B7001A80D2D5
:0105BA00221E
:0D072E001206957FCC1206B07F440206B083
:1005EE001206957FCC1206B07FBE1206B0120678A8
:1005FE008F08120678EFFEE508FFFDAC06EC12023E
:0B060E0038E4FBFA7980784112010CFF
:0106190022BE
:10069500D2B7C2B7007FF7DFFED2B77F20DFFEA259
:0A06A500B7E433FE7FF7DFFEAF0677
:0106AF002228
:10070B00C2B7007E04DEFEEF24FF92B7007E18DE38
:03071B00FED2B754
:01071E0022B8
:1006C900C2B77F02DFFED2B77F02DFFEA2B7E433F3
:0706D900FE7F18DFFEAF06F3
:0106E00022F7
:0206B000AD0794
:1006B200E4FC7401A804088002C333D8FC5DFF1275
:0606C200070B0CBC08EC64
:0106C800220F
:10067800E4FDFC1206C9EF600D7401A804088002AD
:0C068800C333D8FC42050CBC08E9AF05E8
:010694002243
:10000300EC4D6011E8497017ED33EC3304600DE4F7
:10001300FCFFFEFD22E933E8330470F80202DD122F
:1000230002A858046009E4CC248150062850090230
:1000330002E72840030202E4C0E0EB4A7044B980BF
:1000430006D0E0FB0202D3EF4E701CBD8008EBFF2D
:10005300EAFEE9FD80EBE98DF0A4FEE5F00200EC99
:10006300E9CDF9EAFEEBFFEF89F0A4FCE5F0CE89D8
:10007300F0A42EFFE435F0CD89F0A42DFEE435F095
:100083008067EF4E7005BD80D780C3EF8BF0A4ACC3
:10009300F0EE8BF0A42CFCE435F0F8EF8AF0A42CFE
:1000A300E5F038FCE433CB8DF0A42CFCE5F03BF811
:1000B300EE8AF0A42CFCE5F038F8E433CF89F0A401
:1000C3002CFCE5F038CF3400CE89F0A42FFFE5F007
:1000D3003EFEE433C98DF0A42EFEE5F039CD8AF05F
:1000E300A42FFFE5F03EFEE43DFD33D0E0FB5007D7
:1000F3000BBB000F0202E7EC2CFCEF33FFEE33FEE9
:06010300ED33FD0202BF16
:100109000202E7EC5D046005E8590470030202DDB0
:100119001202A8580460F6EC4860F2EC7004FDFE87
:10012900FF22C860DB2481C85009C39860025006C9
:100139000202E49850CAF582E9294B4A7005AB825C
:100149000202D375F0007C1A7880C3EF9BEE9AED1A
:1001590099400DC3EF9BFFEE9AFEED99FDE842F041
:10016900DC23ACF0D0E0FFD0E0FED0E0FDAB822094
:10017900E7101BEB60BAEC2CFCEF33FFEE33FEED1E
:1001890033FD0202BFE803F830E705C0F075F0005F
:10019900EF2FFFEE33FEED33FD40B830E7C280AA02
:1001A90074F8CC6480CCC86480C8F58204604FC3FD
:1001B900EB9FF5F0EA9E42F0E99D42F0E89C45F09C
:1001C900603C501DE5825FFFE582D313CB5BCBF426
:1001D9002B5582FB50280ABA002409B9002008804F
:1001E9001DE5825BFBE582D313CF5FCFF4C3132FE9
:1001F9005582FF50090EBE00050DBD00010CC3EB71
:100209009FF5F0EA9E42F0E99D42F0E89C45F060D6
:0902190007CC4820E701B3EC22F8
:10022200ED33EC33600A047003BD8004ECB2E7FCEA
:0102320022A9
:1002330075F020800E75F010800575F0087D007E46
:10024300007F003392D530D503120454EC334010B1
:10025300EF33FFEE33FEED33FDEC33FCD5F0ED224F
:0E026300E5F0247EA2D513CC92E7CDCEFF228B
:10027100EDD2E7CD33EC3392D524814006E4FFFE85
:10028100FDFC22FCE4CFCECDCC24E0501174FF80E4
:10029100EDC3CC13CCCD13CDCE13CECF13CF047081
:0702A100F030D5DE02045429
:1002A800E9D2E7C933E833F892D5EDD2E7CD33EC9C
:0702B80033FC5002B2D52215
:1002BF00EC30E7100FBF000C0EBE00080DBD0004A0
:1002CF000BEB6014A2D5EB13FCED92E7FD2274FF4C
:1002DF00FCFDFEFF22E480F8A2D574FF13FC7D80A5
:0302EF00E480EFB9
:03000000020747AD
:0C074700787FE4F6D8FD7581250204627D
:1002F200BB010CE58229F582E5833AF583E02250C1
:1003020006E92582F8E622BBFE06E92582F8E2220A
:0D031200E58229F582E5833AF583E4932224
:10031F00EF8DF0A4A8F0CF8CF0A428CE8DF0A42EF2
:02032F00FE22AC
:10033100BC000BBE0029EF8DF084FFADF022E4CCB0
:10034100F875F008EF2FFFEE33FEEC33FCEE9DEC79
:10035100984005FCEE9DFE0FD5F0E9E4CEFD22EDBF
:10036100F8F5F0EE8420D21CFEADF075F008EF2F09
:10037100FFED33FD4007985006D5F0F222C398FDFA
:050381000FD5F0EA2297
:1003860075F008758200EF2FFFEE33FECD33CDCC2E
:1003960033CCC58233C5829BED9AEC99E5829840B1
:1003A6000CF582EE9BFEED9AFDEC99FC0FD5F0D68E
:1003B600E4CEFBE4CDFAE4CCF9A88222B800C1B9B8
:1003C6000059BA002DEC8BF084CFCECDFCE5F0CBF6
:1003D600F97818EF2FFFEE33FEED33FDEC33FCEB2F
:1003E60033FB10D703994004EB99FB0FD8E5E4F9EA
:1003F600FA227818EF2FFFEE33FEED33FDEC33FCD7
:10040600C933C910D7059BE99A4007EC9BFCE99ACA
:10041600F90FD8E0E4C9FAE4CCFB2275F010EF2F0F
:10042600FFEE33FEED33FDCC33CCC833C810D7070F
:100436009BEC9AE899400AED9BFDEC9AFCE899F84A
:0E0446000FD5F0DAE4CDFBE4CCFAE4C8F922DD
:0E045400C3E49FFFE49EFEE49DFDE49CFC22B9
:00000001FF
