:07003900C2A4C2A3C2A2226F
:07004000D2A2C2A4C2A32258
:07004700C2A4C2A2D2A32251
:07004E00D2A3D2A2C2A4223A
:07005500C2A3C2A2D2A42243
:07005C00D2A4D2A2C2A3222C
:07006300D2A4D2A3C2A22225
:07006A00D2A4D2A3D2A2220E
:10000300C287C286D285D284D283D282D281D28061
:0100130022CA
:10001400D282D281C287C286C285C284C283C28090
:0100240022B9
:0400710075805B2219
:0400750075804F2221
:040079007580662206
:04007D0075806D22FB
:0400810075807D22E7
:040085007580072259
:0400890075807F22DD
:04008D0075806F22E9
:0800310012003912008580F86D
:03000000020025D6
:0C002500787FE4F6D8FD758107020031F9
:00000001FF
