:1000F50020280A788482414182847878FCC643436B
:10010500C6FC7878FCFE6767FEFC7878FCFE6767BE
:0B011500FEFC7878FCFE7F7FFEFC788B
:10008F0012015BE4F532E5322508240AF8E6FD7C1F
:10009F0000AF321201210532E532C3940840E70563
:1000AF0009E509D3940A40DBE4F50974082508F53E
:0900BF0008B418CFE4F50880CA6A
:06014600AE071FEE600E83
:0C014C007533027534EFD534FDD533FA5D
:0301580080EC2216
:0200C800AD0782
:1000CA00E4FB74807E00A803088006CEA2E713CE64
:1000DA0013D8F8FFEDF582EF558224FF92B4D2B619
:0A00EA00C2B60BBB08DCD2B5C2B5EC
:0100F40022E9
:10012100AA07AF051200C8AF02747F7EFFA80708B7
:100131008006CEA2E713CE13D8F8F5807F01120115
:05014100467580FF225D
:05015B00C2B6C2B5228E
:03000000020003F8
:0C000300787FE4F6D8FD75813402004AD5
:10000F0002008FE493A3F8E493A34003F68001F278
:10001F0008DFF48029E493A3F85407240CC8C333F2
:10002F00C4540F4420C8834004F456800146F6DFC1
:10003F00E4800B01020408102040809000F5E47E5C
:10004F00019360BCA3FF543F30E509541FFEE493B6
:10005F00A360010ECF54C025E060A840B8E493A37D
:10006F00FAE493A3F8E493A3C8C582C8CAC583CAA8
:10007F00F0A3C8C582C8CAC583CADFE9DEE780BE60
:0101200000DE
:00000001FF
