:0A03B1004D61747269784B657900A4
:1001E1001203827BFF7A0379B17D017F011202F94B
:1001F100750E02E4FBFA7D017F0212033A1200033D
:100201008E088F09E509450860F3750E02AB09AA4E
:0A021100087D017F0212033A80E32A
:10000300E4F50A7590FFC2932097107F1412036DD5
:100013003097FD7F1412036D750A012096107F142B
:1000230012036D3096FD7F1412036D750A0520953A
:10003300107F1412036D3095FD7F1412036D750A42
:10004300092094107F1412036D3094FD7F14120362
:100053006D750A0D7590FFC2922097107F141203DD
:100063006D3097FD7F1412036D750A022096107F81
:100073001412036D3096FD7F1412036D750A06206A
:1000830095107F1412036D3095FD7F1412036D7567
:100093000A0A2094107F1412036D3094FD7F14120A
:1000A300036D750A0E7590FFC2912097107F14128D
:1000B300036D3097FD7F1412036D750A03209610AC
:1000C3007F1412036D3096FD7F1412036D750A07BA
:1000D3002095107F1412036D3095FD7F1412036D6C
:1000E300750A0B2094107F1412036D3094FD7F1456
:1000F30012036D750A0F7590FFC2902097107F143D
:1001030012036D3097FD7F1412036D750A04209658
:10011300107F1412036D3096FD7F1412036D750A60
:10012300082095107F1412036D3095FD7F14120380
:100133006D750A0C2094107F1412036D3094FD7FAB
:090143001412036D750A10AF0AD5
:01014C002290
:06036D00AE071FEE600E5A
:0C037300750B02750CEFD50CFDD50BFAD4
:03037F0080EC22ED
:06039600C2A58F80D2A772
:08039C007F027EEFDEFEDFFCB4
:0103A4002236
:0A03BB00C2A6120396C2A702039C1B
:10031C00CFCDCFCECCCE12018C7C007D0A12018CBD
:04032C00ED2430FF8D
:0A033000D2A6120396C2A702039C96
:10035700AE07BE0104ED148006BE0209ED243F443A
:0603670080FF1203BB221F
:100382007F381203BB7F0C1203BB7F061203BB7FB5
:04039200010203BBA6
:0A03C500AC03120357AF040203302B
:0602F9008B0A8A0B890C40
:1002FF00120357E4FDAB0AAA0BA90C8D827583007C
:0C030F0012014DFF60061203300D80E962
:01031B0022BF
:0C02C6007F0AEA24FFFDE434FFFC7E0008
:0802D2008E0F8F108C118D12AC
:1002DA007F017E00E4FBEBC39512E5116480F8749C
:0E02EA008098500AAC0FAD1012017A0B80E81C
:0102F80022E3
:04033A008A0C8B0D91
:10033E00120357AA0EEAD39400400D1202C6AC0C5B
:08034E00AD0D12031C1A80ED35
:010356002284
:10021B00120357C3EA64809480400B7F2B12033088
:10022B008A188B19800E7F2D120330C3E49BF519AE
:10023B00E49AF518AA17EAD39400400D1202C6AC43
:09024B0018AD1912031C1A80ED14
:010254002287
:040255008A1C8B1D57
:10025900120357AA1EEAD3940040297F101202C83C
:10026900AC1CAD1DCFCDCFCECCCE12018CEF540F2F
:10027900FEC3940AEE5004243080022437FF12038F
:04028900301A80D1D6
:01028D00224E
:04028E008A218B2214
:10029200120357AA23EAD394004028EA24FFFDE47C
:1002A20034FFFC7F027E001202D2AC21AD22CFCD00
:1002B200CFCECCCE12018CEF54012430FF1203308A
:0302C2001A80D2CD
:0102C5002216
:030000000203A553
:0C03A500787FE4F6D8FD7581230201E1A9
:10014D00BB010CE58229F582E5833AF583E0225067
:10015D0006E92582F8E622BBFE06E92582F8E222B1
:0D016D00E58229F582E5833AF583E49322CB
:10017A00EF8DF0A4A8F0CF8CF0A428CE8DF0A42E99
:02018A00FE2253
:10018C00BC000BBE0029EF8DF084FFADF022E4CC57
:10019C00F875F008EF2FFFEE33FEEC33FCEE9DEC20
:1001AC00984005FCEE9DFE0FD5F0E9E4CEFD22ED66
:1001BC00F8F5F0EE8420D21CFEADF075F008EF2FB0
:1001CC00FFED33FD4007985006D5F0F222C398FDA1
:0501DC000FD5F0EA223E
:00000001FF
