:10019B001201B21202018F18E5186002F517AD17A4
:0701AB007F0112009A80ECB5
:03000B00020111DE
:10011100C0E0C0F0C083C082C0D075D000C000C0B4
:0D01210001C002C003C004C005C006C00735
:10012E00758A18758CFC0513E51370020512C394BD
:10013E0014E512940040097512007513001201693E
:10014E00D007D006D005D004D003D002D001D00005
:0B015E00D0D0D082D083D0F0D0E032AF
:0601DF00AE071FEE600EEA
:0C01E5007515027516EFD516FDD515FA3C
:0301F10080EC227D
:09020100851A19E4F51AAF19225F
:1001C900E4FF20B1010F20B0027F0220B2027F03B9
:0501D90020B3027F04C9
:0101DE0022FE
:10016900AF141201C9E514B40106EF7003751A0141
:10017900E514B40206EF7003751A02E514B4030618
:10018900EF7003751A03E514B40406EF7003751ACA
:010199000461
:01019A002242
:0C01F4000A083F065B4F666D7D077F6FB9
:10009A00EF14B4080050609000AF75F003A4C58354
:1000AA0025F0C583730200C70200CB0200D3020009
:1000BA00DB0200E30200EB0200F30200FBC2A480B1
:1000CA001AC2A4C2A3D2A2802ED2A4D2A2C2A38050
:1000DA0026D2A3D2A2C2A4801ED2A4C2A3C2A28044
:1000EA0016D2A2D2A4C2A3800ED2A3D2A4C2A28044
:1000FA0006D2A4D2A3D2A274082DF8E6F5807F0115
:07010A001201DFE4F5802281
:0100030022DA
:1001B2005389F0438901758A18758CFCC28DD28CE3
:0701C200D2A9D2AFC2B9229D
:0300000002000EED
:0C000E00787FE4F6D8FD75811A020055D9
:10001A0002019BE493A3F8E493A34003F68001F260
:10002A0008DFF48029E493A3F85407240CC8C333E7
:10003A00C4540F4420C8834004F456800146F6DFB6
:10004A00E4800B01020408102040809001F4E47E51
:10005A00019360BCA3FF543F30E509541FFEE493AB
:10006A00A360010ECF54C025E060A840B8E493A372
:10007A00FAE493A3F8E493A3C8C582C8CAC583CA9D
:10008A00F0A3C8C582C8CAC583CADFE9DEE780BE55
:0102000000FD
:00000001FF
