:10035A00777269746500202020202000726561642C
:06036A000020202020000D
:1000030012039B1201338F08E508B401110509E5BA
:1000130009FB7A00750F057D017F0112033DE50899
:10002300B402111509E509FB7A00750F057D017FFF
:100033000112033DE50864037025AD09FF1202DFD9
:100043007BFF7A03795A7D087F011202BC7F8812F5
:1000530003867BFF7A0379607D087F011202BCE58A
:1000630008B4049FE4FF1202638F0A7BFF7A0379CB
:10007300667D087F011202BC7F881203867BFF7AAC
:1000830003796B7D087F011202BCE50AFB7A0075D8
:0C0093000F057D017F0212033D020006F4
:0603AF00C2A58F80D2A759
:0803B5007F027EEFDEFEDFFC9B
:0103BD00221D
:0A03D900C2A61203AFC2A70203B5CB
:10030100CFCDCFCECCCE1200DE7C007D0A1200DE36
:04031100ED2430FFA8
:0A031500D2A61203AFC2A70203B57F
:10037000AE07BE0104ED148006BE0209ED243F4421
:0603800080FF1203D922E8
:10039B007F381203D97F0C1203D97F061203D97F42
:0403AB00010203D96F
:0A03E300AC03120370AF040203150F
:0602BC008B0B8A0C890D7A
:1002C200120370E4FDAB0BAA0CA90D8D827583009D
:0C02D20012009FFF60061203150D80E96A
:0102DE0022FD
:0C0230007F0AEA24FFFDE434FFFC7E009E
:08023C008E108F118C128D133E
:100244007F017E00E4FBEBC39513E5126480F87430
:0E0254008098500AAC10AD111200CC0B80E85F
:010262002279
:04033D008A0D8B0E8C
:10034100120370AA0FEAD39400400D120230AC0DD3
:08035100AD0E1203011A80ED4C
:010359002281
:10018500120370C3EA64809480400B7F2B12031521
:100195008A198B1A800E7F2D120315C3E49BF51A5D
:1001A500E49AF519AA18EAD39400400D120230AC6E
:0901B50019AD1A1203011A80EDC4
:0101BE00221E
:0401BF008A1D8B1EEC
:1001C300120370AA1FEAD3940040297F101202324F
:1001D300AC1DAD1ECFCDCFCECCCE1200DEEF540F73
:1001E300FEC3940AEE5004243080022437FF120326
:0401F300151A80D188
:0101F70022E5
:0401F8008A228B23A9
:1001FC00120370AA24EAD394004028EA24FFFDE4F9
:10020C0034FFFC7F027E0012023CAC22AD23CFCD2A
:10021C00CFCECCCE1200DEEF54012430FF120315EA
:03022C001A80D263
:01022F0022AC
:06038600AE071FEE600E41
:0C038C00750C02750DEFD50DFDD50CFAB7
:0303980080EC22D4
:10013300E4F50B20B1107F1412038630B1FD7F1458
:10014300120386750B0120B0107F1412038630B0A2
:10015300FD7F14120386750B0220B2107F14120365
:100163008630B2FD7F14120386750B0320B3107F14
:100173001412038630B3FD7F14120386750B04AF8C
:010183000B70
:010184002258
:0903F700D2A1D2A0C2A0C2A12231
:07040000C2A0D2A1D2A0228C
:02029300AD07B5
:10029500E4FB74807E00A803088006CEA2E713CE97
:1002A50013D8F8FFEDF582EF558224FF92A0D2A175
:0602B500C2A10BBB08DC36
:0102BB002220
:10031F00E4FFD2A0FED2A130A00D7480A806088001
:0D032F0002C313D8FC4207C2A10EBE08E8AD
:01033C00229E
:0A03ED00EF24FF92A0D2A1C2A122CA
:0E03BE00D2A0D2A130A005A2A0E433FFC2A1BC
:0103CC00220E
:1002DF008F0B8D0C1203F77FA01202931203BEAF88
:1002EF000B1202931203BEAF0C1202931203BE0243
:0202FF000400F9
:020263008F0BFF
:100265001203F77FA01202931203BEAF0B12029383
:100275001203BE1203F77FA11202931203BE1203EB
:0D0285001F8F0C7F011203ED120400AF0C5F
:010292002249
:030000000203CD2B
:0C03CD00787FE4F6D8FD7581250200035E
:10009F00BB010CE58229F582E5833AF583E0225016
:1000AF0006E92582F8E622BBFE06E92582F8E22260
:0D00BF00E58229F582E5833AF583E493227A
:1000CC00EF8DF0A4A8F0CF8CF0A428CE8DF0A42E48
:0200DC00FE2202
:1000DE00BC000BBE0029EF8DF084FFADF022E4CC06
:1000EE00F875F008EF2FFFEE33FEEC33FCEE9DECCF
:1000FE00984005FCEE9DFE0FD5F0E9E4CEFD22ED15
:10010E00F8F5F0EE8420D21CFEADF075F008EF2F5E
:10011E00FFED33FD4007985006D5F0F222C398FD4F
:05012E000FD5F0EA22EC
:00000001FF
